{
  "abi": [
    {
      "type": "constructor",
      "inputs": [
        {
          "name": "_signer",
          "type": "address",
          "internalType": "address"
        }
      ],
      "stateMutability": "nonpayable"
    },
    {
      "type": "function",
      "name": "dkimPublicKeyHashes",
      "inputs": [
        {
          "name": "",
          "type": "bytes32",
          "internalType": "bytes32"
        },
        {
          "name": "",
          "type": "bytes32",
          "internalType": "bytes32"
        }
      ],
      "outputs": [
        {
          "name": "",
          "type": "bool",
          "internalType": "bool"
        }
      ],
      "stateMutability": "view"
    },
    {
      "type": "function",
      "name": "isKeyHashValid",
      "inputs": [
        {
          "name": "domainNameHash",
          "type": "bytes32",
          "internalType": "bytes32"
        },
        {
          "name": "publicKeyHash",
          "type": "bytes32",
          "internalType": "bytes32"
        }
      ],
      "outputs": [
        {
          "name": "",
          "type": "bool",
          "internalType": "bool"
        }
      ],
      "stateMutability": "view"
    },
    {
      "type": "function",
      "name": "owner",
      "inputs": [],
      "outputs": [
        {
          "name": "",
          "type": "address",
          "internalType": "address"
        }
      ],
      "stateMutability": "view"
    },
    {
      "type": "function",
      "name": "renounceOwnership",
      "inputs": [],
      "outputs": [],
      "stateMutability": "nonpayable"
    },
    {
      "type": "function",
      "name": "revokeDKIMPublicKeyHash",
      "inputs": [
        {
          "name": "publicKeyHash",
          "type": "bytes32",
          "internalType": "bytes32"
        }
      ],
      "outputs": [],
      "stateMutability": "nonpayable"
    },
    {
      "type": "function",
      "name": "revokedDKIMPublicKeyHashes",
      "inputs": [
        {
          "name": "",
          "type": "bytes32",
          "internalType": "bytes32"
        }
      ],
      "outputs": [
        {
          "name": "",
          "type": "bool",
          "internalType": "bool"
        }
      ],
      "stateMutability": "view"
    },
    {
      "type": "function",
      "name": "setDKIMPublicKeyHash",
      "inputs": [
        {
          "name": "domainHash",
          "type": "bytes32",
          "internalType": "bytes32"
        },
        {
          "name": "publicKeyHash",
          "type": "bytes32",
          "internalType": "bytes32"
        }
      ],
      "outputs": [],
      "stateMutability": "nonpayable"
    },
    {
      "type": "function",
      "name": "setDKIMPublicKeyHashes",
      "inputs": [
        {
          "name": "domainHash",
          "type": "bytes32",
          "internalType": "bytes32"
        },
        {
          "name": "publicKeyHashes",
          "type": "bytes32[]",
          "internalType": "bytes32[]"
        }
      ],
      "outputs": [],
      "stateMutability": "nonpayable"
    },
    {
      "type": "function",
      "name": "transferOwnership",
      "inputs": [
        {
          "name": "newOwner",
          "type": "address",
          "internalType": "address"
        }
      ],
      "outputs": [],
      "stateMutability": "nonpayable"
    },
    {
      "type": "event",
      "name": "KeyHashRegistered",
      "inputs": [
        {
          "name": "domainHash",
          "type": "bytes32",
          "indexed": false,
          "internalType": "bytes32"
        },
        {
          "name": "keyHash",
          "type": "bytes32",
          "indexed": false,
          "internalType": "bytes32"
        }
      ],
      "anonymous": false
    },
    {
      "type": "event",
      "name": "KeyHashRevoked",
      "inputs": [
        {
          "name": "domainHash",
          "type": "bytes32",
          "indexed": false,
          "internalType": "bytes32"
        }
      ],
      "anonymous": false
    },
    {
      "type": "event",
      "name": "OwnershipTransferred",
      "inputs": [
        {
          "name": "previousOwner",
          "type": "address",
          "indexed": true,
          "internalType": "address"
        },
        {
          "name": "newOwner",
          "type": "address",
          "indexed": true,
          "internalType": "address"
        }
      ],
      "anonymous": false
    },
    {
      "type": "error",
      "name": "OwnableInvalidOwner",
      "inputs": [
        {
          "name": "owner",
          "type": "address",
          "internalType": "address"
        }
      ]
    },
    {
      "type": "error",
      "name": "OwnableUnauthorizedAccount",
      "inputs": [
        {
          "name": "account",
          "type": "address",
          "internalType": "address"
        }
      ]
    }
  ],
  "bytecode": {
    "object": "0x608060405234801561000f575f80fd5b50604051610c93380380610c93833981810160405281019061003191906101d7565b805f73ffffffffffffffffffffffffffffffffffffffff168173ffffffffffffffffffffffffffffffffffffffff16036100a2575f6040517f1e4fbdf70000000000000000000000000000000000000000000000000000000081526004016100999190610211565b60405180910390fd5b6100b1816100b860201b60201c565b505061022a565b5f805f9054906101000a900473ffffffffffffffffffffffffffffffffffffffff169050815f806101000a81548173ffffffffffffffffffffffffffffffffffffffff021916908373ffffffffffffffffffffffffffffffffffffffff1602179055508173ffffffffffffffffffffffffffffffffffffffff168173ffffffffffffffffffffffffffffffffffffffff167f8be0079c531659141344cd1fd0a4f28419497f9722a3daafe3b4186f6b6457e060405160405180910390a35050565b5f80fd5b5f73ffffffffffffffffffffffffffffffffffffffff82169050919050565b5f6101a68261017d565b9050919050565b6101b68161019c565b81146101c0575f80fd5b50565b5f815190506101d1816101ad565b92915050565b5f602082840312156101ec576101eb610179565b5b5f6101f9848285016101c3565b91505092915050565b61020b8161019c565b82525050565b5f6020820190506102245f830184610202565b92915050565b610a5c806102375f395ff3fe608060405234801561000f575f80fd5b5060043610610091575f3560e01c8063715018a611610064578063715018a61461012d57806371edffa4146101375780638da5cb5b14610153578063dee3d60014610171578063f2fde38b146101a157610091565b80630f62fa1d1461009557806315d2512e146100c557806342d7cb98146100e15780636b17eec914610111575b5f80fd5b6100af60048036038101906100aa919061063f565b6101bd565b6040516100bc9190610697565b60405180910390f35b6100df60048036038101906100da91906106b0565b6101e7565b005b6100fb60048036038101906100f691906106b0565b610252565b6040516101089190610697565b60405180910390f35b61012b6004803603810190610126919061082b565b61026f565b005b6101356102b8565b005b610151600480360381019061014c919061063f565b6102cb565b005b61015b6103a5565b60405161016891906108c4565b60405180910390f35b61018b6004803603810190610186919061063f565b6103cc565b6040516101989190610697565b60405180910390f35b6101bb60048036038101906101b69190610907565b610428565b005b6001602052815f5260405f20602052805f5260405f205f915091509054906101000a900460ff1681565b6101ef6104ac565b600160025f8381526020019081526020015f205f6101000a81548160ff0219169083151502179055507f1afa6bfa9b4742fd97ad65957a6907f89cf87c87232e1d05a1961d6fe8204c0c816040516102479190610941565b60405180910390a150565b6002602052805f5260405f205f915054906101000a900460ff1681565b6102776104ac565b5f5b81518110156102b3576102a6838383815181106102995761029861095a565b5b60200260200101516102cb565b8080600101915050610279565b505050565b6102c06104ac565b6102c95f610533565b565b6102d36104ac565b60025f8281526020019081526020015f205f9054906101000a900460ff1615610331576040517f08c379a0000000000000000000000000000000000000000000000000000000008152600401610328906109e1565b60405180910390fd5b6001805f8481526020019081526020015f205f8381526020019081526020015f205f6101000a81548160ff0219169083151502179055507ffe6ab6170093d067c73a76283d6ce3d5ad9a545ea4d4f446e7a8b3e37f85618282826040516103999291906109ff565b60405180910390a15050565b5f805f9054906101000a900473ffffffffffffffffffffffffffffffffffffffff16905090565b5f60015f8481526020019081526020015f205f8381526020019081526020015f205f9054906101000a900460ff1680610420575060025f8381526020019081526020015f205f9054906101000a900460ff16155b905092915050565b6104306104ac565b5f73ffffffffffffffffffffffffffffffffffffffff168173ffffffffffffffffffffffffffffffffffffffff16036104a0575f6040517f1e4fbdf700000000000000000000000000000000000000000000000000000000815260040161049791906108c4565b60405180910390fd5b6104a981610533565b50565b6104b46105f4565b73ffffffffffffffffffffffffffffffffffffffff166104d26103a5565b73ffffffffffffffffffffffffffffffffffffffff1614610531576104f56105f4565b6040517f118cdaa700000000000000000000000000000000000000000000000000000000815260040161052891906108c4565b60405180910390fd5b565b5f805f9054906101000a900473ffffffffffffffffffffffffffffffffffffffff169050815f806101000a81548173ffffffffffffffffffffffffffffffffffffffff021916908373ffffffffffffffffffffffffffffffffffffffff1602179055508173ffffffffffffffffffffffffffffffffffffffff168173ffffffffffffffffffffffffffffffffffffffff167f8be0079c531659141344cd1fd0a4f28419497f9722a3daafe3b4186f6b6457e060405160405180910390a35050565b5f33905090565b5f604051905090565b5f80fd5b5f80fd5b5f819050919050565b61061e8161060c565b8114610628575f80fd5b50565b5f8135905061063981610615565b92915050565b5f806040838503121561065557610654610604565b5b5f6106628582860161062b565b92505060206106738582860161062b565b9150509250929050565b5f8115159050919050565b6106918161067d565b82525050565b5f6020820190506106aa5f830184610688565b92915050565b5f602082840312156106c5576106c4610604565b5b5f6106d28482850161062b565b91505092915050565b5f80fd5b5f601f19601f8301169050919050565b7f4e487b71000000000000000000000000000000000000000000000000000000005f52604160045260245ffd5b610725826106df565b810181811067ffffffffffffffff82111715610744576107436106ef565b5b80604052505050565b5f6107566105fb565b9050610762828261071c565b919050565b5f67ffffffffffffffff821115610781576107806106ef565b5b602082029050602081019050919050565b5f80fd5b5f6107a86107a384610767565b61074d565b905080838252602082019050602084028301858111156107cb576107ca610792565b5b835b818110156107f457806107e0888261062b565b8452602084019350506020810190506107cd565b5050509392505050565b5f82601f830112610812576108116106db565b5b8135610822848260208601610796565b91505092915050565b5f806040838503121561084157610840610604565b5b5f61084e8582860161062b565b925050602083013567ffffffffffffffff81111561086f5761086e610608565b5b61087b858286016107fe565b9150509250929050565b5f73ffffffffffffffffffffffffffffffffffffffff82169050919050565b5f6108ae82610885565b9050919050565b6108be816108a4565b82525050565b5f6020820190506108d75f8301846108b5565b92915050565b6108e6816108a4565b81146108f0575f80fd5b50565b5f81359050610901816108dd565b92915050565b5f6020828403121561091c5761091b610604565b5b5f610929848285016108f3565b91505092915050565b61093b8161060c565b82525050565b5f6020820190506109545f830184610932565b92915050565b7f4e487b71000000000000000000000000000000000000000000000000000000005f52603260045260245ffd5b5f82825260208201905092915050565b7f63616e6e6f7420736574207265766f6b6564207075626b6579000000000000005f82015250565b5f6109cb601983610987565b91506109d682610997565b602082019050919050565b5f6020820190508181035f8301526109f8816109bf565b9050919050565b5f604082019050610a125f830185610932565b610a1f6020830184610932565b939250505056fea26469706673582212209a95ded48dd6a56c33b176e55f1f5d3dfb56c6f4b69cd433e269902f9be7cc8964736f6c634300081a0033",
    "linkReferences": {}
  },
  "methodIdentifiers": {
    "dkimPublicKeyHashes(bytes32,bytes32)": "0f62fa1d",
    "isKeyHashValid(bytes32,bytes32)": "dee3d600",
    "owner()": "8da5cb5b",
    "renounceOwnership()": "715018a6",
    "revokeDKIMPublicKeyHash(bytes32)": "15d2512e",
    "revokedDKIMPublicKeyHashes(bytes32)": "42d7cb98",
    "setDKIMPublicKeyHash(bytes32,bytes32)": "71edffa4",
    "setDKIMPublicKeyHashes(bytes32,bytes32[])": "6b17eec9",
    "transferOwnership(address)": "f2fde38b"
  },
  "id": 49
}