{
  "abi": [
    {
      "anonymous": false,
      "inputs": [
        {
          "indexed": false,
          "internalType": "string",
          "name": "domainName",
          "type": "string"
        },
        {
          "indexed": false,
          "internalType": "bytes32",
          "name": "publicKeyHash",
          "type": "bytes32"
        }
      ],
      "name": "DKIMPublicKeyHashRegistered",
      "type": "event"
    },
    {
      "anonymous": false,
      "inputs": [
        {
          "indexed": false,
          "internalType": "bytes32",
          "name": "publicKeyHash",
          "type": "bytes32"
        }
      ],
      "name": "DKIMPublicKeyHashRevoked",
      "type": "event"
    },
    {
      "anonymous": false,
      "inputs": [
        {
          "indexed": true,
          "internalType": "address",
          "name": "previousOwner",
          "type": "address"
        },
        {
          "indexed": true,
          "internalType": "address",
          "name": "newOwner",
          "type": "address"
        }
      ],
      "name": "OwnershipTransferred",
      "type": "event"
    },
    {
      "inputs": [
        {
          "internalType": "string",
          "name": "",
          "type": "string"
        },
        {
          "internalType": "bytes32",
          "name": "",
          "type": "bytes32"
        }
      ],
      "name": "dkimPublicKeyHashes",
      "outputs": [
        {
          "internalType": "bool",
          "name": "",
          "type": "bool"
        }
      ],
      "stateMutability": "view",
      "type": "function"
    },
    {
      "inputs": [
        {
          "internalType": "string",
          "name": "domainName",
          "type": "string"
        },
        {
          "internalType": "bytes32",
          "name": "publicKeyHash",
          "type": "bytes32"
        }
      ],
      "name": "isDKIMPublicKeyHashValid",
      "outputs": [
        {
          "internalType": "bool",
          "name": "",
          "type": "bool"
        }
      ],
      "stateMutability": "view",
      "type": "function"
    },
    {
      "inputs": [],
      "name": "owner",
      "outputs": [
        {
          "internalType": "address",
          "name": "",
          "type": "address"
        }
      ],
      "stateMutability": "view",
      "type": "function"
    },
    {
      "inputs": [],
      "name": "renounceOwnership",
      "outputs": [],
      "stateMutability": "nonpayable",
      "type": "function"
    },
    {
      "inputs": [
        {
          "internalType": "bytes32",
          "name": "publicKeyHash",
          "type": "bytes32"
        }
      ],
      "name": "revokeDKIMPublicKeyHash",
      "outputs": [],
      "stateMutability": "nonpayable",
      "type": "function"
    },
    {
      "inputs": [
        {
          "internalType": "bytes32",
          "name": "",
          "type": "bytes32"
        }
      ],
      "name": "revokedDKIMPublicKeyHashes",
      "outputs": [
        {
          "internalType": "bool",
          "name": "",
          "type": "bool"
        }
      ],
      "stateMutability": "view",
      "type": "function"
    },
    {
      "inputs": [
        {
          "internalType": "string",
          "name": "domainName",
          "type": "string"
        },
        {
          "internalType": "bytes32",
          "name": "publicKeyHash",
          "type": "bytes32"
        }
      ],
      "name": "setDKIMPublicKeyHash",
      "outputs": [],
      "stateMutability": "nonpayable",
      "type": "function"
    },
    {
      "inputs": [
        {
          "internalType": "string",
          "name": "domainName",
          "type": "string"
        },
        {
          "internalType": "bytes32[]",
          "name": "publicKeyHashes",
          "type": "bytes32[]"
        }
      ],
      "name": "setDKIMPublicKeyHashes",
      "outputs": [],
      "stateMutability": "nonpayable",
      "type": "function"
    },
    {
      "inputs": [
        {
          "internalType": "address",
          "name": "newOwner",
          "type": "address"
        }
      ],
      "name": "transferOwnership",
      "outputs": [],
      "stateMutability": "nonpayable",
      "type": "function"
    }
  ],
  "bytecode": {
    "object": "0x608060405234801561001057600080fd5b5061001a3361001f565b61006f565b600080546001600160a01b038381166001600160a01b0319831681178455604051919092169283917f8be0079c531659141344cd1fd0a4f28419497f9722a3daafe3b4186f6b6457e09190a35050565b6107b88061007e6000396000f3fe608060405234801561001057600080fd5b50600436106100935760003560e01c80638da5cb5b116100665780638da5cb5b1461012b578063c15cffab14610146578063e7a7977a14610159578063f2fde38b1461016c578063f49eb1641461017f57600080fd5b80630690bd381461009857806315d2512e146100eb57806342d7cb9814610100578063715018a614610123575b600080fd5b6100d66100a6366004610572565b81516020818401810180516001825292820194820194909420919093529091526000908152604090205460ff1681565b60405190151581526020015b60405180910390f35b6100fe6100f93660046105b7565b610192565b005b6100d661010e3660046105b7565b60026020526000908152604090205460ff1681565b6100fe6101f0565b6000546040516001600160a01b0390911681526020016100e2565b6100fe610154366004610572565b610204565b6100d6610167366004610572565b6102e6565b6100fe61017a3660046105d0565b61034a565b6100fe61018d366004610600565b6103c3565b61019a610411565b60008181526002602052604090819020805460ff19166001179055517fb80fff2b4c6f3ddf804877927c77b2fe1871cecaa5ad43d2c7c42f417331f865906101e59083815260200190565b60405180910390a150565b6101f8610411565b610202600061046b565b565b61020c610411565b60008181526002602052604090205460ff16156102705760405162461bcd60e51b815260206004820152601960248201527f63616e6e6f7420736574207265766f6b6564207075626b65790000000000000060448201526064015b60405180910390fd5b6001808360405161028191906106ee565b9081526040805160209281900383018120600086815293529120805460ff1916921515929092179091557f510dac88eaf2dfbd53904241fc199ad46b2063e6bf6c3fb291f8ce8643663419906102da908490849061070a565b60405180910390a15050565b60008181526002602052604081205460ff161561030557506000610344565b60018360405161031591906106ee565b90815260408051602092819003830190206000858152925290205460ff161561034057506001610344565b5060005b92915050565b610352610411565b6001600160a01b0381166103b75760405162461bcd60e51b815260206004820152602660248201527f4f776e61626c653a206e6577206f776e657220697320746865207a65726f206160448201526564647265737360d01b6064820152608401610267565b6103c08161046b565b50565b6103cb610411565b60005b815181101561040c576103fa838383815181106103ed576103ed610745565b6020026020010151610204565b806104048161075b565b9150506103ce565b505050565b6000546001600160a01b031633146102025760405162461bcd60e51b815260206004820181905260248201527f4f776e61626c653a2063616c6c6572206973206e6f7420746865206f776e65726044820152606401610267565b600080546001600160a01b038381166001600160a01b0319831681178455604051919092169283917f8be0079c531659141344cd1fd0a4f28419497f9722a3daafe3b4186f6b6457e09190a35050565b634e487b7160e01b600052604160045260246000fd5b604051601f8201601f1916810167ffffffffffffffff811182821017156104fa576104fa6104bb565b604052919050565b600082601f83011261051357600080fd5b813567ffffffffffffffff81111561052d5761052d6104bb565b610540601f8201601f19166020016104d1565b81815284602083860101111561055557600080fd5b816020850160208301376000918101602001919091529392505050565b6000806040838503121561058557600080fd5b823567ffffffffffffffff81111561059c57600080fd5b6105a885828601610502565b95602094909401359450505050565b6000602082840312156105c957600080fd5b5035919050565b6000602082840312156105e257600080fd5b81356001600160a01b03811681146105f957600080fd5b9392505050565b6000806040838503121561061357600080fd5b823567ffffffffffffffff8082111561062b57600080fd5b61063786838701610502565b935060209150818501358181111561064e57600080fd5b8501601f8101871361065f57600080fd5b803582811115610671576106716104bb565b8060051b92506106828484016104d1565b818152928201840192848101908985111561069c57600080fd5b928501925b848410156106ba578335825292850192908501906106a1565b8096505050505050509250929050565b60005b838110156106e55781810151838201526020016106cd565b50506000910152565b600082516107008184602087016106ca565b9190910192915050565b60408152600083518060408401526107298160608501602088016106ca565b602083019390935250601f91909101601f191601606001919050565b634e487b7160e01b600052603260045260246000fd5b60006001820161077b57634e487b7160e01b600052601160045260246000fd5b506001019056fea2646970667358221220cc6623fbd4351f88817d51e91927525d1d7c87a0fda0c9c90bffa320638cc10064736f6c63430008150033",
    "linkReferences": {}
  },
  "methodIdentifiers": {
    "dkimPublicKeyHashes(string,bytes32)": "0690bd38",
    "isDKIMPublicKeyHashValid(string,bytes32)": "e7a7977a",
    "owner()": "8da5cb5b",
    "renounceOwnership()": "715018a6",
    "revokeDKIMPublicKeyHash(bytes32)": "15d2512e",
    "revokedDKIMPublicKeyHashes(bytes32)": "42d7cb98",
    "setDKIMPublicKeyHash(string,bytes32)": "c15cffab",
    "setDKIMPublicKeyHashes(string,bytes32[])": "f49eb164",
    "transferOwnership(address)": "f2fde38b"
  },
  "id": 3
}